{
  "_format": "hh-sol-artifact-1",
  "contractName": "document",
  "sourceName": "contracts/document.sol",
  "abi": [
    {
      "inputs": [],
      "stateMutability": "nonpayable",
      "type": "constructor"
    },
    {
      "inputs": [
        {
          "internalType": "string",
          "name": "docType",
          "type": "string"
        }
      ],
      "name": "download",
      "outputs": [
        {
          "internalType": "string",
          "name": "",
          "type": "string"
        }
      ],
      "stateMutability": "view",
      "type": "function"
    },
    {
      "inputs": [
        {
          "internalType": "string",
          "name": "docum",
          "type": "string"
        },
        {
          "internalType": "string",
          "name": "docType",
          "type": "string"
        }
      ],
      "name": "upload",
      "outputs": [],
      "stateMutability": "nonpayable",
      "type": "function"
    }
  ],
  "bytecode": "0x60806040526000805534801561001457600080fd5b506100606040518060400160405280600d81526020017f746f74616c446f6373206973200000000000000000000000000000000000000081525060005461006560201b6102051760201c565b610212565b610103828260405160240161007b929190610178565b6040516020818303038152906040527f9710a9d0000000000000000000000000000000000000000000000000000000007bffffffffffffffffffffffffffffffffffffffffffffffffffffffff19166020820180517bffffffffffffffffffffffffffffffffffffffffffffffffffffffff838183161783525050505061010760201b60201c565b5050565b60008151905060006a636f6e736f6c652e6c6f679050602083016000808483855afa5050505050565b600061013b826101a8565b61014581856101b3565b93506101558185602086016101ce565b61015e81610201565b840191505092915050565b610172816101c4565b82525050565b600060408201905081810360008301526101928185610130565b90506101a16020830184610169565b9392505050565b600081519050919050565b600082825260208201905092915050565b6000819050919050565b60005b838110156101ec5780820151818401526020810190506101d1565b838111156101fb576000848401525b50505050565b6000601f19601f8301169050919050565b6107ad806102216000396000f3fe608060405234801561001057600080fd5b50600436106100365760003560e01c8063202e49361461003b57806356803d9414610057575b600080fd5b61005560048036038101906100509190610416565b610087565b005b610071600480360381019061006c91906103d5565b610115565b60405161007e9190610512565b60405180910390f35b81600160003373ffffffffffffffffffffffffffffffffffffffff1673ffffffffffffffffffffffffffffffffffffffff168152602001908152602001600020600001826040516100d891906104fb565b908152602001604051809103902090805190602001906100f99291906102ca565b5060008081548092919061010c90610690565b91905055505050565b6060600160003373ffffffffffffffffffffffffffffffffffffffff1673ffffffffffffffffffffffffffffffffffffffff1681526020019081526020016000206000018260405161016791906104fb565b908152602001604051809103902080546101809061062d565b80601f01602080910402602001604051908101604052809291908181526020018280546101ac9061062d565b80156101f95780601f106101ce576101008083540402835291602001916101f9565b820191906000526020600020905b8154815290600101906020018083116101dc57829003601f168201915b50505050509050919050565b61029d828260405160240161021b929190610534565b6040516020818303038152906040527f9710a9d0000000000000000000000000000000000000000000000000000000007bffffffffffffffffffffffffffffffffffffffffffffffffffffffff19166020820180517bffffffffffffffffffffffffffffffffffffffffffffffffffffffff83818316178352505050506102a1565b5050565b60008151905060006a636f6e736f6c652e6c6f679050602083016000808483855afa5050505050565b8280546102d69061062d565b90600052602060002090601f0160209004810192826102f8576000855561033f565b82601f1061031157805160ff191683800117855561033f565b8280016001018555821561033f579182015b8281111561033e578251825591602001919060010190610323565b5b50905061034c9190610350565b5090565b5b80821115610369576000816000905550600101610351565b5090565b600061038061037b84610589565b610564565b90508281526020810184848401111561039857600080fd5b6103a38482856105eb565b509392505050565b600082601f8301126103bc57600080fd5b81356103cc84826020860161036d565b91505092915050565b6000602082840312156103e757600080fd5b600082013567ffffffffffffffff81111561040157600080fd5b61040d848285016103ab565b91505092915050565b6000806040838503121561042957600080fd5b600083013567ffffffffffffffff81111561044357600080fd5b61044f858286016103ab565b925050602083013567ffffffffffffffff81111561046c57600080fd5b610478858286016103ab565b9150509250929050565b600061048d826105ba565b61049781856105c5565b93506104a78185602086016105fa565b6104b081610766565b840191505092915050565b60006104c6826105ba565b6104d081856105d6565b93506104e08185602086016105fa565b80840191505092915050565b6104f5816105e1565b82525050565b600061050782846104bb565b915081905092915050565b6000602082019050818103600083015261052c8184610482565b905092915050565b6000604082019050818103600083015261054e8185610482565b905061055d60208301846104ec565b9392505050565b600061056e61057f565b905061057a828261065f565b919050565b6000604051905090565b600067ffffffffffffffff8211156105a4576105a3610737565b5b6105ad82610766565b9050602081019050919050565b600081519050919050565b600082825260208201905092915050565b600081905092915050565b6000819050919050565b82818337600083830152505050565b60005b838110156106185780820151818401526020810190506105fd565b83811115610627576000848401525b50505050565b6000600282049050600182168061064557607f821691505b6020821081141561065957610658610708565b5b50919050565b61066882610766565b810181811067ffffffffffffffff8211171561068757610686610737565b5b80604052505050565b600061069b826105e1565b91507fffffffffffffffffffffffffffffffffffffffffffffffffffffffffffffffff8214156106ce576106cd6106d9565b5b600182019050919050565b7f4e487b7100000000000000000000000000000000000000000000000000000000600052601160045260246000fd5b7f4e487b7100000000000000000000000000000000000000000000000000000000600052602260045260246000fd5b7f4e487b7100000000000000000000000000000000000000000000000000000000600052604160045260246000fd5b6000601f19601f830116905091905056fea2646970667358221220396d3745b5a885e3eb462250f0862db26282c90ddf6c7603ae6f6017062d4d7b64736f6c63430008040033",
  "linkReferences": {},
  "deployedLinkReferences": {}
}