{
  "_format": "hh-sol-artifact-1",
  "contractName": "document",
  "sourceName": "contracts/document.sol",
  "abi": [
    {
      "inputs": [],
      "stateMutability": "nonpayable",
      "type": "constructor"
    },
    {
      "inputs": [
        {
          "internalType": "string",
          "name": "docType",
          "type": "string"
        }
      ],
      "name": "download",
      "outputs": [
        {
          "internalType": "string",
          "name": "",
          "type": "string"
        }
      ],
      "stateMutability": "view",
      "type": "function"
    },
    {
      "inputs": [
        {
          "internalType": "string",
          "name": "docum",
          "type": "string"
        },
        {
          "internalType": "string",
          "name": "docType",
          "type": "string"
        }
      ],
      "name": "upload",
      "outputs": [],
      "stateMutability": "nonpayable",
      "type": "function"
    }
  ],
  "bytecode": "0x60806040526000805534801561001457600080fd5b506100606040518060400160405280600d81526020017f746f74616c446f6373206973200000000000000000000000000000000000000081525060005461006560201b6102d31760201c565b610212565b610103828260405160240161007b929190610178565b6040516020818303038152906040527f9710a9d0000000000000000000000000000000000000000000000000000000007bffffffffffffffffffffffffffffffffffffffffffffffffffffffff19166020820180517bffffffffffffffffffffffffffffffffffffffffffffffffffffffff838183161783525050505061010760201b60201c565b5050565b60008151905060006a636f6e736f6c652e6c6f679050602083016000808483855afa5050505050565b600061013b826101a8565b61014581856101b3565b93506101558185602086016101ce565b61015e81610201565b840191505092915050565b610172816101c4565b82525050565b600060408201905081810360008301526101928185610130565b90506101a16020830184610169565b9392505050565b600081519050919050565b600082825260208201905092915050565b6000819050919050565b60005b838110156101ec5780820151818401526020810190506101d1565b838111156101fb576000848401525b50505050565b6000601f19601f8301169050919050565b610931806102216000396000f3fe608060405234801561001057600080fd5b50600436106100365760003560e01c8063202e49361461003b57806356803d9414610057575b600080fd5b610055600480360381019061005091906104e4565b610087565b005b610071600480360381019061006c91906104a3565b610115565b60405161007e9190610676565b60405180910390f35b81600160003373ffffffffffffffffffffffffffffffffffffffff1673ffffffffffffffffffffffffffffffffffffffff168152602001908152602001600020600001826040516100d8919061065f565b908152602001604051809103902090805190602001906100f9929190610398565b5060008081548092919061010c90610814565b91905055505050565b60606040518060200160405280600081525080519060200120600160003373ffffffffffffffffffffffffffffffffffffffff1673ffffffffffffffffffffffffffffffffffffffff1681526020019081526020016000206000018360405161017e919061065f565b90815260200160405180910390206040516101999190610648565b604051809103902014156101e4576040518060400160405280600281526020017f2d3100000000000000000000000000000000000000000000000000000000000081525090506102ce565b600160003373ffffffffffffffffffffffffffffffffffffffff1673ffffffffffffffffffffffffffffffffffffffff16815260200190815260200160002060000182604051610234919061065f565b9081526020016040518091039020805461024d906107b1565b80601f0160208091040260200160405190810160405280929190818152602001828054610279906107b1565b80156102c65780601f1061029b576101008083540402835291602001916102c6565b820191906000526020600020905b8154815290600101906020018083116102a957829003601f168201915b505050505090505b919050565b61036b82826040516024016102e9929190610698565b6040516020818303038152906040527f9710a9d0000000000000000000000000000000000000000000000000000000007bffffffffffffffffffffffffffffffffffffffffffffffffffffffff19166020820180517bffffffffffffffffffffffffffffffffffffffffffffffffffffffff838183161783525050505061036f565b5050565b60008151905060006a636f6e736f6c652e6c6f679050602083016000808483855afa5050505050565b8280546103a4906107b1565b90600052602060002090601f0160209004810192826103c6576000855561040d565b82601f106103df57805160ff191683800117855561040d565b8280016001018555821561040d579182015b8281111561040c5782518255916020019190600101906103f1565b5b50905061041a919061041e565b5090565b5b8082111561043757600081600090555060010161041f565b5090565b600061044e610449846106ed565b6106c8565b90508281526020810184848401111561046657600080fd5b61047184828561076f565b509392505050565b600082601f83011261048a57600080fd5b813561049a84826020860161043b565b91505092915050565b6000602082840312156104b557600080fd5b600082013567ffffffffffffffff8111156104cf57600080fd5b6104db84828501610479565b91505092915050565b600080604083850312156104f757600080fd5b600083013567ffffffffffffffff81111561051157600080fd5b61051d85828601610479565b925050602083013567ffffffffffffffff81111561053a57600080fd5b61054685828601610479565b9150509250929050565b6000815461055d816107b1565b610567818661073e565b945060018216600081146105825760018114610593576105c6565b60ff198316865281860193506105c6565b61059c8561071e565b60005b838110156105be5781548189015260018201915060208101905061059f565b838801955050505b50505092915050565b60006105da82610733565b6105e48185610749565b93506105f481856020860161077e565b6105fd816108ea565b840191505092915050565b600061061382610733565b61061d818561075a565b935061062d81856020860161077e565b80840191505092915050565b61064281610765565b82525050565b60006106548284610550565b915081905092915050565b600061066b8284610608565b915081905092915050565b6000602082019050818103600083015261069081846105cf565b905092915050565b600060408201905081810360008301526106b281856105cf565b90506106c16020830184610639565b9392505050565b60006106d26106e3565b90506106de82826107e3565b919050565b6000604051905090565b600067ffffffffffffffff821115610708576107076108bb565b5b610711826108ea565b9050602081019050919050565b60008190508160005260206000209050919050565b600081519050919050565b600081905092915050565b600082825260208201905092915050565b600081905092915050565b6000819050919050565b82818337600083830152505050565b60005b8381101561079c578082015181840152602081019050610781565b838111156107ab576000848401525b50505050565b600060028204905060018216806107c957607f821691505b602082108114156107dd576107dc61088c565b5b50919050565b6107ec826108ea565b810181811067ffffffffffffffff8211171561080b5761080a6108bb565b5b80604052505050565b600061081f82610765565b91507fffffffffffffffffffffffffffffffffffffffffffffffffffffffffffffffff8214156108525761085161085d565b5b600182019050919050565b7f4e487b7100000000000000000000000000000000000000000000000000000000600052601160045260246000fd5b7f4e487b7100000000000000000000000000000000000000000000000000000000600052602260045260246000fd5b7f4e487b7100000000000000000000000000000000000000000000000000000000600052604160045260246000fd5b6000601f19601f830116905091905056fea264697066735822122073dbf4ee9653da9368443e2c329155aeb8a5af99cc824dd85b4970431730efaf64736f6c63430008040033",
  "linkReferences": {},
  "deployedLinkReferences": {}
}